{"src/contracts/FlightBooking.sol":{"FlightBooking":{"abi":[{"anonymous":false,"inputs":[{"indexed":false,"internalType":"string","name":"flightId","type":"string"}],"name":"BookingConfirmed","type":"event"},{"anonymous":false,"inputs":[{"indexed":false,"internalType":"string","name":"flightId","type":"string"},{"indexed":false,"internalType":"address","name":"passenger","type":"address"},{"indexed":false,"internalType":"uint256","name":"price","type":"uint256"}],"name":"BookingCreated","type":"event"},{"anonymous":false,"inputs":[{"indexed":false,"internalType":"address","name":"passenger","type":"address"},{"indexed":false,"internalType":"uint256","name":"points","type":"uint256"}],"name":"PointsEarned","type":"event"},{"inputs":[{"internalType":"string","name":"","type":"string"}],"name":"bookings","outputs":[{"internalType":"address","name":"passenger","type":"address"},{"internalType":"string","name":"flightId","type":"string"},{"internalType":"uint256","name":"price","type":"uint256"},{"internalType":"uint256","name":"timestamp","type":"uint256"},{"internalType":"bool","name":"isConfirmed","type":"bool"}],"stateMutability":"view","type":"function"},{"inputs":[{"internalType":"string","name":"flightId","type":"string"},{"internalType":"uint256","name":"price","type":"uint256"}],"name":"createBooking","outputs":[],"stateMutability":"payable","type":"function"},{"inputs":[{"internalType":"string","name":"flightId","type":"string"}],"name":"getBooking","outputs":[{"components":[{"internalType":"address","name":"passenger","type":"address"},{"internalType":"string","name":"flightId","type":"string"},{"internalType":"uint256","name":"price","type":"uint256"},{"internalType":"uint256","name":"timestamp","type":"uint256"},{"internalType":"bool","name":"isConfirmed","type":"bool"}],"internalType":"struct FlightBooking.Booking","name":"","type":"tuple"}],"stateMutability":"view","type":"function"},{"inputs":[{"internalType":"address","name":"passenger","type":"address"}],"name":"getLoyaltyPoints","outputs":[{"internalType":"uint256","name":"","type":"uint256"}],"stateMutability":"view","type":"function"},{"inputs":[{"internalType":"address","name":"","type":"address"}],"name":"loyaltyPoints","outputs":[{"internalType":"uint256","name":"","type":"uint256"}],"stateMutability":"view","type":"function"}],"evm":{"bytecode":{"linkReferences":{},"object":"608060405234801561001057600080fd5b5061118a806100206000396000f3fe60806040526004361061004a5760003560e01c8063502bf35e1461004f5780639624493f14610090578063b689a930146100cd578063d04c9115146100e9578063d45e425914610126575b600080fd5b34801561005b57600080fd5b506100766004803603810190610071919061087f565b610163565b6040516100879594939291906109bc565b60405180910390f35b34801561009c57600080fd5b506100b760048036038101906100b2919061087f565b610264565b6040516100c49190610b03565b60405180910390f35b6100e760048036038101906100e29190610b51565b6103b3565b005b3480156100f557600080fd5b50610110600480360381019061010b9190610bd9565b61067d565b60405161011d9190610c06565b60405180910390f35b34801561013257600080fd5b5061014d60048036038101906101489190610bd9565b6106c6565b60405161015a9190610c06565b60405180910390f35b6000818051602081018201805184825260208301602085012081835280955050505050506000915090508060000160009054906101000a900473ffffffffffffffffffffffffffffffffffffffff16908060010180546101c290610c50565b80601f01602080910402602001604051908101604052809291908181526020018280546101ee90610c50565b801561023b5780601f106102105761010080835404028352916020019161023b565b820191906000526020600020905b81548152906001019060200180831161021e57829003601f168201915b5050505050908060020154908060030154908060040160009054906101000a900460ff16905085565b61026c6106de565b60008260405161027c9190610cbd565b90815260200160405180910390206040518060a00160405290816000820160009054906101000a900473ffffffffffffffffffffffffffffffffffffffff1673ffffffffffffffffffffffffffffffffffffffff1673ffffffffffffffffffffffffffffffffffffffff1681526020016001820180546102fb90610c50565b80601f016020809104026020016040519081016040528092919081815260200182805461032790610c50565b80156103745780601f1061034957610100808354040283529160200191610374565b820191906000526020600020905b81548152906001019060200180831161035757829003601f168201915b5050505050815260200160028201548152602001600382015481526020016004820160009054906101000a900460ff1615151515815250509050919050565b8034146103f5576040517f08c379a00000000000000000000000000000000000000000000000000000000081526004016103ec90610d20565b60405180910390fd5b600073ffffffffffffffffffffffffffffffffffffffff1660008360405161041d9190610cbd565b908152602001604051809103902060000160009054906101000a900473ffffffffffffffffffffffffffffffffffffffff1673ffffffffffffffffffffffffffffffffffffffff16146104a5576040517f08c379a000000000000000000000000000000000000000000000000000000000815260040161049c90610d8c565b60405180910390fd5b6040518060a001604052803373ffffffffffffffffffffffffffffffffffffffff168152602001838152602001828152602001428152602001600115158152506000836040516104f59190610cbd565b908152602001604051809103902060008201518160000160006101000a81548173ffffffffffffffffffffffffffffffffffffffff021916908373ffffffffffffffffffffffffffffffffffffffff160217905550602082015181600101908161055f9190610f58565b50604082015181600201556060820151816003015560808201518160040160006101000a81548160ff0219169083151502179055509050506000662386f26fc10000826105ac9190611088565b905080600160003373ffffffffffffffffffffffffffffffffffffffff1673ffffffffffffffffffffffffffffffffffffffff16815260200190815260200160002060008282546105fd91906110b9565b925050819055507f334c06f5c8aa567850bfd3ab87676e4c43e308428447be3d2fdbde30b080750b833384604051610637939291906110ed565b60405180910390a17f2c4c0dc427a50c4a69d2fc184c47a311acf950d8d2f289fbaee64e83e9b28967338260405161067092919061112b565b60405180910390a1505050565b6000600160008373ffffffffffffffffffffffffffffffffffffffff1673ffffffffffffffffffffffffffffffffffffffff168152602001908152602001600020549050919050565b60016020528060005260406000206000915090505481565b6040518060a00160405280600073ffffffffffffffffffffffffffffffffffffffff1681526020016060815260200160008152602001600081526020016000151581525090565b6000604051905090565b600080fd5b600080fd5b600080fd5b600080fd5b6000601f19601f8301169050919050565b7f4e487b7100000000000000000000000000000000000000000000000000000000600052604160045260246000fd5b61078c82610743565b810181811067ffffffffffffffff821117156107ab576107aa610754565b5b80604052505050565b60006107be610725565b90506107ca8282610783565b919050565b600067ffffffffffffffff8211156107ea576107e9610754565b5b6107f382610743565b9050602081019050919050565b82818337600083830152505050565b600061082261081d846107cf565b6107b4565b90508281526020810184848401111561083e5761083d61073e565b5b610849848285610800565b509392505050565b600082601f83011261086657610865610739565b5b813561087684826020860161080f565b91505092915050565b6000602082840312156108955761089461072f565b5b600082013567ffffffffffffffff8111156108b3576108b2610734565b5b6108bf84828501610851565b91505092915050565b600073ffffffffffffffffffffffffffffffffffffffff82169050919050565b60006108f3826108c8565b9050919050565b610903816108e8565b82525050565b600081519050919050565b600082825260208201905092915050565b60005b83811015610943578082015181840152602081019050610928565b60008484015250505050565b600061095a82610909565b6109648185610914565b9350610974818560208601610925565b61097d81610743565b840191505092915050565b6000819050919050565b61099b81610988565b82525050565b60008115159050919050565b6109b6816109a1565b82525050565b600060a0820190506109d160008301886108fa565b81810360208301526109e3818761094f565b90506109f26040830186610992565b6109ff6060830185610992565b610a0c60808301846109ad565b9695505050505050565b610a1f816108e8565b82525050565b600082825260208201905092915050565b6000610a4182610909565b610a4b8185610a25565b9350610a5b818560208601610925565b610a6481610743565b840191505092915050565b610a7881610988565b82525050565b610a87816109a1565b82525050565b600060a083016000830151610aa56000860182610a16565b5060208301518482036020860152610abd8282610a36565b9150506040830151610ad26040860182610a6f565b506060830151610ae56060860182610a6f565b506080830151610af86080860182610a7e565b508091505092915050565b60006020820190508181036000830152610b1d8184610a8d565b905092915050565b610b2e81610988565b8114610b3957600080fd5b50565b600081359050610b4b81610b25565b92915050565b60008060408385031215610b6857610b6761072f565b5b600083013567ffffffffffffffff811115610b8657610b85610734565b5b610b9285828601610851565b9250506020610ba385828601610b3c565b9150509250929050565b610bb6816108e8565b8114610bc157600080fd5b50565b600081359050610bd381610bad565b92915050565b600060208284031215610bef57610bee61072f565b5b6000610bfd84828501610bc4565b91505092915050565b6000602082019050610c1b6000830184610992565b92915050565b7f4e487b7100000000000000000000000000000000000000000000000000000000600052602260045260246000fd5b60006002820490506001821680610c6857607f821691505b602082108103610c7b57610c7a610c21565b5b50919050565b600081905092915050565b6000610c9782610909565b610ca18185610c81565b9350610cb1818560208601610925565b80840191505092915050565b6000610cc98284610c8c565b915081905092915050565b7f496e636f7272656374207061796d656e7420616d6f756e740000000000000000600082015250565b6000610d0a601883610914565b9150610d1582610cd4565b602082019050919050565b60006020820190508181036000830152610d3981610cfd565b9050919050565b7f466c6967687420616c726561647920626f6f6b65640000000000000000000000600082015250565b6000610d76601583610914565b9150610d8182610d40565b602082019050919050565b60006020820190508181036000830152610da581610d69565b9050919050565b60008190508160005260206000209050919050565b60006020601f8301049050919050565b600082821b905092915050565b600060088302610e0e7fffffffffffffffffffffffffffffffffffffffffffffffffffffffffffffffff82610dd1565b610e188683610dd1565b95508019841693508086168417925050509392505050565b6000819050919050565b6000610e55610e50610e4b84610988565b610e30565b610988565b9050919050565b6000819050919050565b610e6f83610e3a565b610e83610e7b82610e5c565b848454610dde565b825550505050565b600090565b610e98610e8b565b610ea3818484610e66565b505050565b5b81811015610ec757610ebc600082610e90565b600181019050610ea9565b5050565b601f821115610f0c57610edd81610dac565b610ee684610dc1565b81016020851015610ef5578190505b610f09610f0185610dc1565b830182610ea8565b50505b505050565b600082821c905092915050565b6000610f2f60001984600802610f11565b1980831691505092915050565b6000610f488383610f1e565b9150826002028217905092915050565b610f6182610909565b67ffffffffffffffff811115610f7a57610f79610754565b5b610f848254610c50565b610f8f828285610ecb565b600060209050601f831160018114610fc25760008415610fb0578287015190505b610fba8582610f3c565b865550611022565b601f198416610fd086610dac565b60005b82811015610ff857848901518255600182019150602085019450602081019050610fd3565b868310156110155784890151611011601f891682610f1e565b8355505b6001600288020188555050505b505050505050565b7f4e487b7100000000000000000000000000000000000000000000000000000000600052601260045260246000fd5b7f4e487b7100000000000000000000000000000000000000000000000000000000600052601160045260246000fd5b600061109382610988565b915061109e83610988565b9250826110ae576110ad61102a565b5b828204905092915050565b60006110c482610988565b91506110cf83610988565b92508282019050808211156110e7576110e6611059565b5b92915050565b60006060820190508181036000830152611107818661094f565b905061111660208301856108fa565b6111236040830184610992565b949350505050565b600060408201905061114060008301856108fa565b61114d6020830184610992565b939250505056fea264697066735822122028aa5f3c0a4fb6aef1b8b96f72fa927cf3a5c1fc12c9c389b6e8946451ace47f64736f6c63430008140033","opcodes":"PUSH1 0x80 PUSH1 0x40 MSTORE CALLVALUE DUP1 ISZERO PUSH2 0x10 JUMPI PUSH1 0x0 DUP1 REVERT JUMPDEST POP PUSH2 0x118A DUP1 PUSH2 0x20 PUSH1 0x0 CODECOPY PUSH1 0x0 RETURN INVALID PUSH1 0x80 PUSH1 0x40 MSTORE PUSH1 0x4 CALLDATASIZE LT PUSH2 0x4A JUMPI PUSH1 0x0 CALLDATALOAD PUSH1 0xE0 SHR DUP1 PUSH4 0x502BF35E EQ PUSH2 0x4F JUMPI DUP1 PUSH4 0x9624493F EQ PUSH2 0x90 JUMPI DUP1 PUSH4 0xB689A930 EQ PUSH2 0xCD JUMPI DUP1 PUSH4 0xD04C9115 EQ PUSH2 0xE9 JUMPI DUP1 PUSH4 0xD45E4259 EQ PUSH2 0x126 JUMPI JUMPDEST PUSH1 0x0 DUP1 REVERT JUMPDEST CALLVALUE DUP1 ISZERO PUSH2 0x5B JUMPI PUSH1 0x0 DUP1 REVERT JUMPDEST POP PUSH2 0x76 PUSH1 0x4 DUP1 CALLDATASIZE SUB DUP2 ADD SWAP1 PUSH2 0x71 SWAP2 SWAP1 PUSH2 0x87F JUMP JUMPDEST PUSH2 0x163 JUMP JUMPDEST PUSH1 0x40 MLOAD PUSH2 0x87 SWAP6 SWAP5 SWAP4 SWAP3 SWAP2 SWAP1 PUSH2 0x9BC JUMP JUMPDEST PUSH1 0x40 MLOAD DUP1 SWAP2 SUB SWAP1 RETURN JUMPDEST CALLVALUE DUP1 ISZERO PUSH2 0x9C JUMPI PUSH1 0x0 DUP1 REVERT JUMPDEST POP PUSH2 0xB7 PUSH1 0x4 DUP1 CALLDATASIZE SUB DUP2 ADD SWAP1 PUSH2 0xB2 SWAP2 SWAP1 PUSH2 0x87F JUMP JUMPDEST PUSH2 0x264 JUMP JUMPDEST PUSH1 0x40 MLOAD PUSH2 0xC4 SWAP2 SWAP1 PUSH2 0xB03 JUMP JUMPDEST PUSH1 0x40 MLOAD DUP1 SWAP2 SUB SWAP1 RETURN JUMPDEST PUSH2 0xE7 PUSH1 0x4 DUP1 CALLDATASIZE SUB DUP2 ADD SWAP1 PUSH2 0xE2 SWAP2 SWAP1 PUSH2 0xB51 JUMP JUMPDEST PUSH2 0x3B3 JUMP JUMPDEST STOP JUMPDEST CALLVALUE DUP1 ISZERO PUSH2 0xF5 JUMPI PUSH1 0x0 DUP1 REVERT JUMPDEST POP PUSH2 0x110 PUSH1 0x4 DUP1 CALLDATASIZE SUB DUP2 ADD SWAP1 PUSH2 0x10B SWAP2 SWAP1 PUSH2 0xBD9 JUMP JUMPDEST PUSH2 0x67D JUMP JUMPDEST PUSH1 0x40 MLOAD PUSH2 0x11D SWAP2 SWAP1 PUSH2 0xC06 JUMP JUMPDEST PUSH1 0x40 MLOAD DUP1 SWAP2 SUB SWAP1 RETURN JUMPDEST CALLVALUE DUP1 ISZERO PUSH2 0x132 JUMPI PUSH1 0x0 DUP1 REVERT JUMPDEST POP PUSH2 0x14D PUSH1 0x4 DUP1 CALLDATASIZE SUB DUP2 ADD SWAP1 PUSH2 0x148 SWAP2 SWAP1 PUSH2 0xBD9 JUMP JUMPDEST PUSH2 0x6C6 JUMP JUMPDEST PUSH1 0x40 MLOAD PUSH2 0x15A SWAP2 SWAP1 PUSH2 0xC06 JUMP JUMPDEST PUSH1 0x40 MLOAD DUP1 SWAP2 SUB SWAP1 RETURN JUMPDEST PUSH1 0x0 DUP2 DUP1 MLOAD PUSH1 0x20 DUP2 ADD DUP3 ADD DUP1 MLOAD DUP5 DUP3 MSTORE PUSH1 0x20 DUP4 ADD PUSH1 0x20 DUP6 ADD KECCAK256 DUP2 DUP4 MSTORE DUP1 SWAP6 POP POP POP POP POP POP PUSH1 0x0 SWAP2 POP SWAP1 POP DUP1 PUSH1 0x0 ADD PUSH1 0x0 SWAP1 SLOAD SWAP1 PUSH2 0x100 EXP SWAP1 DIV PUSH20 0xFFFFFFFFFFFFFFFFFFFFFFFFFFFFFFFFFFFFFFFF AND SWAP1 DUP1 PUSH1 0x1 ADD DUP1 SLOAD PUSH2 0x1C2 SWAP1 PUSH2 0xC50 JUMP JUMPDEST DUP1 PUSH1 0x1F ADD PUSH1 0x20 DUP1 SWAP2 DIV MUL PUSH1 0x20 ADD PUSH1 0x40 MLOAD SWAP1 DUP2 ADD PUSH1 0x40 MSTORE DUP1 SWAP3 SWAP2 SWAP1 DUP2 DUP2 MSTORE PUSH1 0x20 ADD DUP3 DUP1 SLOAD PUSH2 0x1EE SWAP1 PUSH2 0xC50 JUMP JUMPDEST DUP1 ISZERO PUSH2 0x23B JUMPI DUP1 PUSH1 0x1F LT PUSH2 0x210 JUMPI PUSH2 0x100 DUP1 DUP4 SLOAD DIV MUL DUP4 MSTORE SWAP2 PUSH1 0x20 ADD SWAP2 PUSH2 0x23B JUMP JUMPDEST DUP3 ADD SWAP2 SWAP1 PUSH1 0x0 MSTORE PUSH1 0x20 PUSH1 0x0 KECCAK256 SWAP1 JUMPDEST DUP2 SLOAD DUP2 MSTORE SWAP1 PUSH1 0x1 ADD SWAP1 PUSH1 0x20 ADD DUP1 DUP4 GT PUSH2 0x21E JUMPI DUP3 SWAP1 SUB PUSH1 0x1F AND DUP3 ADD SWAP2 JUMPDEST POP POP POP POP POP SWAP1 DUP1 PUSH1 0x2 ADD SLOAD SWAP1 DUP1 PUSH1 0x3 ADD SLOAD SWAP1 DUP1 PUSH1 0x4 ADD PUSH1 0x0 SWAP1 SLOAD SWAP1 PUSH2 0x100 EXP SWAP1 DIV PUSH1 0xFF AND SWAP1 POP DUP6 JUMP JUMPDEST PUSH2 0x26C PUSH2 0x6DE JUMP JUMPDEST PUSH1 0x0 DUP3 PUSH1 0x40 MLOAD PUSH2 0x27C SWAP2 SWAP1 PUSH2 0xCBD JUMP JUMPDEST SWAP1 DUP2 MSTORE PUSH1 0x20 ADD PUSH1 0x40 MLOAD DUP1 SWAP2 SUB SWAP1 KECCAK256 PUSH1 0x40 MLOAD DUP1 PUSH1 0xA0 ADD PUSH1 0x40 MSTORE SWAP1 DUP2 PUSH1 0x0 DUP3 ADD PUSH1 0x0 SWAP1 SLOAD SWAP1 PUSH2 0x100 EXP SWAP1 DIV PUSH20 0xFFFFFFFFFFFFFFFFFFFFFFFFFFFFFFFFFFFFFFFF AND PUSH20 0xFFFFFFFFFFFFFFFFFFFFFFFFFFFFFFFFFFFFFFFF AND PUSH20 0xFFFFFFFFFFFFFFFFFFFFFFFFFFFFFFFFFFFFFFFF AND DUP2 MSTORE PUSH1 0x20 ADD PUSH1 0x1 DUP3 ADD DUP1 SLOAD PUSH2 0x2FB SWAP1 PUSH2 0xC50 JUMP JUMPDEST DUP1 PUSH1 0x1F ADD PUSH1 0x20 DUP1 SWAP2 DIV MUL PUSH1 0x20 ADD PUSH1 0x40 MLOAD SWAP1 DUP2 ADD PUSH1 0x40 MSTORE DUP1 SWAP3 SWAP2 SWAP1 DUP2 DUP2 MSTORE PUSH1 0x20 ADD DUP3 DUP1 SLOAD PUSH2 0x327 SWAP1 PUSH2 0xC50 JUMP JUMPDEST DUP1 ISZERO PUSH2 0x374 JUMPI DUP1 PUSH1 0x1F LT PUSH2 0x349 JUMPI PUSH2 0x100 DUP1 DUP4 SLOAD DIV MUL DUP4 MSTORE SWAP2 PUSH1 0x20 ADD SWAP2 PUSH2 0x374 JUMP JUMPDEST DUP3 ADD SWAP2 SWAP1 PUSH1 0x0 MSTORE PUSH1 0x20 PUSH1 0x0 KECCAK256 SWAP1 JUMPDEST DUP2 SLOAD DUP2 MSTORE SWAP1 PUSH1 0x1 ADD SWAP1 PUSH1 0x20 ADD DUP1 DUP4 GT PUSH2 0x357 JUMPI DUP3 SWAP1 SUB PUSH1 0x1F AND DUP3 ADD SWAP2 JUMPDEST POP POP POP POP POP DUP2 MSTORE PUSH1 0x20 ADD PUSH1 0x2 DUP3 ADD SLOAD DUP2 MSTORE PUSH1 0x20 ADD PUSH1 0x3 DUP3 ADD SLOAD DUP2 MSTORE PUSH1 0x20 ADD PUSH1 0x4 DUP3 ADD PUSH1 0x0 SWAP1 SLOAD SWAP1 PUSH2 0x100 EXP SWAP1 DIV PUSH1 0xFF AND ISZERO ISZERO ISZERO ISZERO DUP2 MSTORE POP POP SWAP1 POP SWAP2 SWAP1 POP JUMP JUMPDEST DUP1 CALLVALUE EQ PUSH2 0x3F5 JUMPI PUSH1 0x40 MLOAD PUSH32 0x8C379A000000000000000000000000000000000000000000000000000000000 DUP2 MSTORE PUSH1 0x4 ADD PUSH2 0x3EC SWAP1 PUSH2 0xD20 JUMP JUMPDEST PUSH1 0x40 MLOAD DUP1 SWAP2 SUB SWAP1 REVERT JUMPDEST PUSH1 0x0 PUSH20 0xFFFFFFFFFFFFFFFFFFFFFFFFFFFFFFFFFFFFFFFF AND PUSH1 0x0 DUP4 PUSH1 0x40 MLOAD PUSH2 0x41D SWAP2 SWAP1 PUSH2 0xCBD JUMP JUMPDEST SWAP1 DUP2 MSTORE PUSH1 0x20 ADD PUSH1 0x40 MLOAD DUP1 SWAP2 SUB SWAP1 KECCAK256 PUSH1 0x0 ADD PUSH1 0x0 SWAP1 SLOAD SWAP1 PUSH2 0x100 EXP SWAP1 DIV PUSH20 0xFFFFFFFFFFFFFFFFFFFFFFFFFFFFFFFFFFFFFFFF AND PUSH20 0xFFFFFFFFFFFFFFFFFFFFFFFFFFFFFFFFFFFFFFFF AND EQ PUSH2 0x4A5 JUMPI PUSH1 0x40 MLOAD PUSH32 0x8C379A000000000000000000000000000000000000000000000000000000000 DUP2 MSTORE PUSH1 0x4 ADD PUSH2 0x49C SWAP1 PUSH2 0xD8C JUMP JUMPDEST PUSH1 0x40 MLOAD DUP1 SWAP2 SUB SWAP1 REVERT JUMPDEST PUSH1 0x40 MLOAD DUP1 PUSH1 0xA0 ADD PUSH1 0x40 MSTORE DUP1 CALLER PUSH20 0xFFFFFFFFFFFFFFFFFFFFFFFFFFFFFFFFFFFFFFFF AND DUP2 MSTORE PUSH1 0x20 ADD DUP4 DUP2 MSTORE PUSH1 0x20 ADD DUP3 DUP2 MSTORE PUSH1 0x20 ADD TIMESTAMP DUP2 MSTORE PUSH1 0x20 ADD PUSH1 0x1 ISZERO ISZERO DUP2 MSTORE POP PUSH1 0x0 DUP4 PUSH1 0x40 MLOAD PUSH2 0x4F5 SWAP2 SWAP1 PUSH2 0xCBD JUMP JUMPDEST SWAP1 DUP2 MSTORE PUSH1 0x20 ADD PUSH1 0x40 MLOAD DUP1 SWAP2 SUB SWAP1 KECCAK256 PUSH1 0x0 DUP3 ADD MLOAD DUP2 PUSH1 0x0 ADD PUSH1 0x0 PUSH2 0x100 EXP DUP2 SLOAD DUP2 PUSH20 0xFFFFFFFFFFFFFFFFFFFFFFFFFFFFFFFFFFFFFFFF MUL NOT AND SWAP1 DUP4 PUSH20 0xFFFFFFFFFFFFFFFFFFFFFFFFFFFFFFFFFFFFFFFF AND MUL OR SWAP1 SSTORE POP PUSH1 0x20 DUP3 ADD MLOAD DUP2 PUSH1 0x1 ADD SWAP1 DUP2 PUSH2 0x55F SWAP2 SWAP1 PUSH2 0xF58 JUMP JUMPDEST POP PUSH1 0x40 DUP3 ADD MLOAD DUP2 PUSH1 0x2 ADD SSTORE PUSH1 0x60 DUP3 ADD MLOAD DUP2 PUSH1 0x3 ADD SSTORE PUSH1 0x80 DUP3 ADD MLOAD DUP2 PUSH1 0x4 ADD PUSH1 0x0 PUSH2 0x100 EXP DUP2 SLOAD DUP2 PUSH1 0xFF MUL NOT AND SWAP1 DUP4 ISZERO ISZERO MUL OR SWAP1 SSTORE POP SWAP1 POP POP PUSH1 0x0 PUSH7 0x2386F26FC10000 DUP3 PUSH2 0x5AC SWAP2 SWAP1 PUSH2 0x1088 JUMP JUMPDEST SWAP1 POP DUP1 PUSH1 0x1 PUSH1 0x0 CALLER PUSH20 0xFFFFFFFFFFFFFFFFFFFFFFFFFFFFFFFFFFFFFFFF AND PUSH20 0xFFFFFFFFFFFFFFFFFFFFFFFFFFFFFFFFFFFFFFFF AND DUP2 MSTORE PUSH1 0x20 ADD SWAP1 DUP2 MSTORE PUSH1 0x20 ADD PUSH1 0x0 KECCAK256 PUSH1 0x0 DUP3 DUP3 SLOAD PUSH2 0x5FD SWAP2 SWAP1 PUSH2 0x10B9 JUMP JUMPDEST SWAP3 POP POP DUP2 SWAP1 SSTORE POP PUSH32 0x334C06F5C8AA567850BFD3AB87676E4C43E308428447BE3D2FDBDE30B080750B DUP4 CALLER DUP5 PUSH1 0x40 MLOAD PUSH2 0x637 SWAP4 SWAP3 SWAP2 SWAP1 PUSH2 0x10ED JUMP JUMPDEST PUSH1 0x40 MLOAD DUP1 SWAP2 SUB SWAP1 LOG1 PUSH32 0x2C4C0DC427A50C4A69D2FC184C47A311ACF950D8D2F289FBAEE64E83E9B28967 CALLER DUP3 PUSH1 0x40 MLOAD PUSH2 0x670 SWAP3 SWAP2 SWAP1 PUSH2 0x112B JUMP JUMPDEST PUSH1 0x40 MLOAD DUP1 SWAP2 SUB SWAP1 LOG1 POP POP POP JUMP JUMPDEST PUSH1 0x0 PUSH1 0x1 PUSH1 0x0 DUP4 PUSH20 0xFFFFFFFFFFFFFFFFFFFFFFFFFFFFFFFFFFFFFFFF AND PUSH20 0xFFFFFFFFFFFFFFFFFFFFFFFFFFFFFFFFFFFFFFFF AND DUP2 MSTORE PUSH1 0x20 ADD SWAP1 DUP2 MSTORE PUSH1 0x20 ADD PUSH1 0x0 KECCAK256 SLOAD SWAP1 POP SWAP2 SWAP1 POP JUMP JUMPDEST PUSH1 0x1 PUSH1 0x20 MSTORE DUP1 PUSH1 0x0 MSTORE PUSH1 0x40 PUSH1 0x0 KECCAK256 PUSH1 0x0 SWAP2 POP SWAP1 POP SLOAD DUP2 JUMP JUMPDEST PUSH1 0x40 MLOAD DUP1 PUSH1 0xA0 ADD PUSH1 0x40 MSTORE DUP1 PUSH1 0x0 PUSH20 0xFFFFFFFFFFFFFFFFFFFFFFFFFFFFFFFFFFFFFFFF AND DUP2 MSTORE PUSH1 0x20 ADD PUSH1 0x60 DUP2 MSTORE PUSH1 0x20 ADD PUSH1 0x0 DUP2 MSTORE PUSH1 0x20 ADD PUSH1 0x0 DUP2 MSTORE PUSH1 0x20 ADD PUSH1 0x0 ISZERO ISZERO DUP2 MSTORE POP SWAP1 JUMP JUMPDEST PUSH1 0x0 PUSH1 0x40 MLOAD SWAP1 POP SWAP1 JUMP JUMPDEST PUSH1 0x0 DUP1 REVERT JUMPDEST PUSH1 0x0 DUP1 REVERT JUMPDEST PUSH1 0x0 DUP1 REVERT JUMPDEST PUSH1 0x0 DUP1 REVERT JUMPDEST PUSH1 0x0 PUSH1 0x1F NOT PUSH1 0x1F DUP4 ADD AND SWAP1 POP SWAP2 SWAP1 POP JUMP JUMPDEST PUSH32 0x4E487B7100000000000000000000000000000000000000000000000000000000 PUSH1 0x0 MSTORE PUSH1 0x41 PUSH1 0x4 MSTORE PUSH1 0x24 PUSH1 0x0 REVERT JUMPDEST PUSH2 0x78C DUP3 PUSH2 0x743 JUMP JUMPDEST DUP2 ADD DUP2 DUP2 LT PUSH8 0xFFFFFFFFFFFFFFFF DUP3 GT OR ISZERO PUSH2 0x7AB JUMPI PUSH2 0x7AA PUSH2 0x754 JUMP JUMPDEST JUMPDEST DUP1 PUSH1 0x40 MSTORE POP POP POP JUMP JUMPDEST PUSH1 0x0 PUSH2 0x7BE PUSH2 0x725 JUMP JUMPDEST SWAP1 POP PUSH2 0x7CA DUP3 DUP3 PUSH2 0x783 JUMP JUMPDEST SWAP2 SWAP1 POP JUMP JUMPDEST PUSH1 0x0 PUSH8 0xFFFFFFFFFFFFFFFF DUP3 GT ISZERO PUSH2 0x7EA JUMPI PUSH2 0x7E9 PUSH2 0x754 JUMP JUMPDEST JUMPDEST PUSH2 0x7F3 DUP3 PUSH2 0x743 JUMP JUMPDEST SWAP1 POP PUSH1 0x20 DUP2 ADD SWAP1 POP SWAP2 SWAP1 POP JUMP JUMPDEST DUP3 DUP2 DUP4 CALLDATACOPY PUSH1 0x0 DUP4 DUP4 ADD MSTORE POP POP POP JUMP JUMPDEST PUSH1 0x0 PUSH2 0x822 PUSH2 0x81D DUP5 PUSH2 0x7CF JUMP JUMPDEST PUSH2 0x7B4 JUMP JUMPDEST SWAP1 POP DUP3 DUP2 MSTORE PUSH1 0x20 DUP2 ADD DUP5 DUP5 DUP5 ADD GT ISZERO PUSH2 0x83E JUMPI PUSH2 0x83D PUSH2 0x73E JUMP JUMPDEST JUMPDEST PUSH2 0x849 DUP5 DUP3 DUP6 PUSH2 0x800 JUMP JUMPDEST POP SWAP4 SWAP3 POP POP POP JUMP JUMPDEST PUSH1 0x0 DUP3 PUSH1 0x1F DUP4 ADD SLT PUSH2 0x866 JUMPI PUSH2 0x865 PUSH2 0x739 JUMP JUMPDEST JUMPDEST DUP2 CALLDATALOAD PUSH2 0x876 DUP5 DUP3 PUSH1 0x20 DUP7 ADD PUSH2 0x80F JUMP JUMPDEST SWAP2 POP POP SWAP3 SWAP2 POP POP JUMP JUMPDEST PUSH1 0x0 PUSH1 0x20 DUP3 DUP5 SUB SLT ISZERO PUSH2 0x895 JUMPI PUSH2 0x894 PUSH2 0x72F JUMP JUMPDEST JUMPDEST PUSH1 0x0 DUP3 ADD CALLDATALOAD PUSH8 0xFFFFFFFFFFFFFFFF DUP2 GT ISZERO PUSH2 0x8B3 JUMPI PUSH2 0x8B2 PUSH2 0x734 JUMP JUMPDEST JUMPDEST PUSH2 0x8BF DUP5 DUP3 DUP6 ADD PUSH2 0x851 JUMP JUMPDEST SWAP2 POP POP SWAP3 SWAP2 POP POP JUMP JUMPDEST PUSH1 0x0 PUSH20 0xFFFFFFFFFFFFFFFFFFFFFFFFFFFFFFFFFFFFFFFF DUP3 AND SWAP1 POP SWAP2 SWAP1 POP JUMP JUMPDEST PUSH1 0x0 PUSH2 0x8F3 DUP3 PUSH2 0x8C8 JUMP JUMPDEST SWAP1 POP SWAP2 SWAP1 POP JUMP JUMPDEST PUSH2 0x903 DUP2 PUSH2 0x8E8 JUMP JUMPDEST DUP3 MSTORE POP POP JUMP JUMPDEST PUSH1 0x0 DUP2 MLOAD SWAP1 POP SWAP2 SWAP1 POP JUMP JUMPDEST PUSH1 0x0 DUP3 DUP3 MSTORE PUSH1 0x20 DUP3 ADD SWAP1 POP SWAP3 SWAP2 POP POP JUMP JUMPDEST PUSH1 0x0 JUMPDEST DUP4 DUP2 LT ISZERO PUSH2 0x943 JUMPI DUP1 DUP3 ADD MLOAD DUP2 DUP5 ADD MSTORE PUSH1 0x20 DUP2 ADD SWAP1 POP PUSH2 0x928 JUMP JUMPDEST PUSH1 0x0 DUP5 DUP5 ADD MSTORE POP POP POP POP JUMP JUMPDEST PUSH1 0x0 PUSH2 0x95A DUP3 PUSH2 0x909 JUMP JUMPDEST PUSH2 0x964 DUP2 DUP6 PUSH2 0x914 JUMP JUMPDEST SWAP4 POP PUSH2 0x974 DUP2 DUP6 PUSH1 0x20 DUP7 ADD PUSH2 0x925 JUMP JUMPDEST PUSH2 0x97D DUP2 PUSH2 0x743 JUMP JUMPDEST DUP5 ADD SWAP2 POP POP SWAP3 SWAP2 POP POP JUMP JUMPDEST PUSH1 0x0 DUP2 SWAP1 POP SWAP2 SWAP1 POP JUMP JUMPDEST PUSH2 0x99B DUP2 PUSH2 0x988 JUMP JUMPDEST DUP3 MSTORE POP POP JUMP JUMPDEST PUSH1 0x0 DUP2 ISZERO ISZERO SWAP1 POP SWAP2 SWAP1 POP JUMP JUMPDEST PUSH2 0x9B6 DUP2 PUSH2 0x9A1 JUMP JUMPDEST DUP3 MSTORE POP POP JUMP JUMPDEST PUSH1 0x0 PUSH1 0xA0 DUP3 ADD SWAP1 POP PUSH2 0x9D1 PUSH1 0x0 DUP4 ADD DUP9 PUSH2 0x8FA JUMP JUMPDEST DUP2 DUP2 SUB PUSH1 0x20 DUP4 ADD MSTORE PUSH2 0x9E3 DUP2 DUP8 PUSH2 0x94F JUMP JUMPDEST SWAP1 POP PUSH2 0x9F2 PUSH1 0x40 DUP4 ADD DUP7 PUSH2 0x992 JUMP JUMPDEST PUSH2 0x9FF PUSH1 0x60 DUP4 ADD DUP6 PUSH2 0x992 JUMP JUMPDEST PUSH2 0xA0C PUSH1 0x80 DUP4 ADD DUP5 PUSH2 0x9AD JUMP JUMPDEST SWAP7 SWAP6 POP POP POP POP POP POP JUMP JUMPDEST PUSH2 0xA1F DUP2 PUSH2 0x8E8 JUMP JUMPDEST DUP3 MSTORE POP POP JUMP JUMPDEST PUSH1 0x0 DUP3 DUP3 MSTORE PUSH1 0x20 DUP3 ADD SWAP1 POP SWAP3 SWAP2 POP POP JUMP JUMPDEST PUSH1 0x0 PUSH2 0xA41 DUP3 PUSH2 0x909 JUMP JUMPDEST PUSH2 0xA4B DUP2 DUP6 PUSH2 0xA25 JUMP JUMPDEST SWAP4 POP PUSH2 0xA5B DUP2 DUP6 PUSH1 0x20 DUP7 ADD PUSH2 0x925 JUMP JUMPDEST PUSH2 0xA64 DUP2 PUSH2 0x743 JUMP JUMPDEST DUP5 ADD SWAP2 POP POP SWAP3 SWAP2 POP POP JUMP JUMPDEST PUSH2 0xA78 DUP2 PUSH2 0x988 JUMP JUMPDEST DUP3 MSTORE POP POP JUMP JUMPDEST PUSH2 0xA87 DUP2 PUSH2 0x9A1 JUMP JUMPDEST DUP3 MSTORE POP POP JUMP JUMPDEST PUSH1 0x0 PUSH1 0xA0 DUP4 ADD PUSH1 0x0 DUP4 ADD MLOAD PUSH2 0xAA5 PUSH1 0x0 DUP7 ADD DUP3 PUSH2 0xA16 JUMP JUMPDEST POP PUSH1 0x20 DUP4 ADD MLOAD DUP5 DUP3 SUB PUSH1 0x20 DUP7 ADD MSTORE PUSH2 0xABD DUP3 DUP3 PUSH2 0xA36 JUMP JUMPDEST SWAP2 POP POP PUSH1 0x40 DUP4 ADD MLOAD PUSH2 0xAD2 PUSH1 0x40 DUP7 ADD DUP3 PUSH2 0xA6F JUMP JUMPDEST POP PUSH1 0x60 DUP4 ADD MLOAD PUSH2 0xAE5 PUSH1 0x60 DUP7 ADD DUP3 PUSH2 0xA6F JUMP JUMPDEST POP PUSH1 0x80 DUP4 ADD MLOAD PUSH2 0xAF8 PUSH1 0x80 DUP7 ADD DUP3 PUSH2 0xA7E JUMP JUMPDEST POP DUP1 SWAP2 POP POP SWAP3 SWAP2 POP POP JUMP JUMPDEST PUSH1 0x0 PUSH1 0x20 DUP3 ADD SWAP1 POP DUP2 DUP2 SUB PUSH1 0x0 DUP4 ADD MSTORE PUSH2 0xB1D DUP2 DUP5 PUSH2 0xA8D JUMP JUMPDEST SWAP1 POP SWAP3 SWAP2 POP POP JUMP JUMPDEST PUSH2 0xB2E DUP2 PUSH2 0x988 JUMP JUMPDEST DUP2 EQ PUSH2 0xB39 JUMPI PUSH1 0x0 DUP1 REVERT JUMPDEST POP JUMP JUMPDEST PUSH1 0x0 DUP2 CALLDATALOAD SWAP1 POP PUSH2 0xB4B DUP2 PUSH2 0xB25 JUMP JUMPDEST SWAP3 SWAP2 POP POP JUMP JUMPDEST PUSH1 0x0 DUP1 PUSH1 0x40 DUP4 DUP6 SUB SLT ISZERO PUSH2 0xB68 JUMPI PUSH2 0xB67 PUSH2 0x72F JUMP JUMPDEST JUMPDEST PUSH1 0x0 DUP4 ADD CALLDATALOAD PUSH8 0xFFFFFFFFFFFFFFFF DUP2 GT ISZERO PUSH2 0xB86 JUMPI PUSH2 0xB85 PUSH2 0x734 JUMP JUMPDEST JUMPDEST PUSH2 0xB92 DUP6 DUP3 DUP7 ADD PUSH2 0x851 JUMP JUMPDEST SWAP3 POP POP PUSH1 0x20 PUSH2 0xBA3 DUP6 DUP3 DUP7 ADD PUSH2 0xB3C JUMP JUMPDEST SWAP2 POP POP SWAP3 POP SWAP3 SWAP1 POP JUMP JUMPDEST PUSH2 0xBB6 DUP2 PUSH2 0x8E8 JUMP JUMPDEST DUP2 EQ PUSH2 0xBC1 JUMPI PUSH1 0x0 DUP1 REVERT JUMPDEST POP JUMP JUMPDEST PUSH1 0x0 DUP2 CALLDATALOAD SWAP1 POP PUSH2 0xBD3 DUP2 PUSH2 0xBAD JUMP JUMPDEST SWAP3 SWAP2 POP POP JUMP JUMPDEST PUSH1 0x0 PUSH1 0x20 DUP3 DUP5 SUB SLT ISZERO PUSH2 0xBEF JUMPI PUSH2 0xBEE PUSH2 0x72F JUMP JUMPDEST JUMPDEST PUSH1 0x0 PUSH2 0xBFD DUP5 DUP3 DUP6 ADD PUSH2 0xBC4 JUMP JUMPDEST SWAP2 POP POP SWAP3 SWAP2 POP POP JUMP JUMPDEST PUSH1 0x0 PUSH1 0x20 DUP3 ADD SWAP1 POP PUSH2 0xC1B PUSH1 0x0 DUP4 ADD DUP5 PUSH2 0x992 JUMP JUMPDEST SWAP3 SWAP2 POP POP JUMP JUMPDEST PUSH32 0x4E487B7100000000000000000000000000000000000000000000000000000000 PUSH1 0x0 MSTORE PUSH1 0x22 PUSH1 0x4 MSTORE PUSH1 0x24 PUSH1 0x0 REVERT JUMPDEST PUSH1 0x0 PUSH1 0x2 DUP3 DIV SWAP1 POP PUSH1 0x1 DUP3 AND DUP1 PUSH2 0xC68 JUMPI PUSH1 0x7F DUP3 AND SWAP2 POP JUMPDEST PUSH1 0x20 DUP3 LT DUP2 SUB PUSH2 0xC7B JUMPI PUSH2 0xC7A PUSH2 0xC21 JUMP JUMPDEST JUMPDEST POP SWAP2 SWAP1 POP JUMP JUMPDEST PUSH1 0x0 DUP2 SWAP1 POP SWAP3 SWAP2 POP POP JUMP JUMPDEST PUSH1 0x0 PUSH2 0xC97 DUP3 PUSH2 0x909 JUMP JUMPDEST PUSH2 0xCA1 DUP2 DUP6 PUSH2 0xC81 JUMP JUMPDEST SWAP4 POP PUSH2 0xCB1 DUP2 DUP6 PUSH1 0x20 DUP7 ADD PUSH2 0x925 JUMP JUMPDEST DUP1 DUP5 ADD SWAP2 POP POP SWAP3 SWAP2 POP POP JUMP JUMPDEST PUSH1 0x0 PUSH2 0xCC9 DUP3 DUP5 PUSH2 0xC8C JUMP JUMPDEST SWAP2 POP DUP2 SWAP1 POP SWAP3 SWAP2 POP POP JUMP JUMPDEST PUSH32 0x496E636F7272656374207061796D656E7420616D6F756E740000000000000000 PUSH1 0x0 DUP3 ADD MSTORE POP JUMP JUMPDEST PUSH1 0x0 PUSH2 0xD0A PUSH1 0x18 DUP4 PUSH2 0x914 JUMP JUMPDEST SWAP2 POP PUSH2 0xD15 DUP3 PUSH2 0xCD4 JUMP JUMPDEST PUSH1 0x20 DUP3 ADD SWAP1 POP SWAP2 SWAP1 POP JUMP JUMPDEST PUSH1 0x0 PUSH1 0x20 DUP3 ADD SWAP1 POP DUP2 DUP2 SUB PUSH1 0x0 DUP4 ADD MSTORE PUSH2 0xD39 DUP2 PUSH2 0xCFD JUMP JUMPDEST SWAP1 POP SWAP2 SWAP1 POP JUMP JUMPDEST PUSH32 0x466C6967687420616C726561647920626F6F6B65640000000000000000000000 PUSH1 0x0 DUP3 ADD MSTORE POP JUMP JUMPDEST PUSH1 0x0 PUSH2 0xD76 PUSH1 0x15 DUP4 PUSH2 0x914 JUMP JUMPDEST SWAP2 POP PUSH2 0xD81 DUP3 PUSH2 0xD40 JUMP JUMPDEST PUSH1 0x20 DUP3 ADD SWAP1 POP SWAP2 SWAP1 POP JUMP JUMPDEST PUSH1 0x0 PUSH1 0x20 DUP3 ADD SWAP1 POP DUP2 DUP2 SUB PUSH1 0x0 DUP4 ADD MSTORE PUSH2 0xDA5 DUP2 PUSH2 0xD69 JUMP JUMPDEST SWAP1 POP SWAP2 SWAP1 POP JUMP JUMPDEST PUSH1 0x0 DUP2 SWAP1 POP DUP2 PUSH1 0x0 MSTORE PUSH1 0x20 PUSH1 0x0 KECCAK256 SWAP1 POP SWAP2 SWAP1 POP JUMP JUMPDEST PUSH1 0x0 PUSH1 0x20 PUSH1 0x1F DUP4 ADD DIV SWAP1 POP SWAP2 SWAP1 POP JUMP JUMPDEST PUSH1 0x0 DUP3 DUP3 SHL SWAP1 POP SWAP3 SWAP2 POP POP JUMP JUMPDEST PUSH1 0x0 PUSH1 0x8 DUP4 MUL PUSH2 0xE0E PUSH32 0xFFFFFFFFFFFFFFFFFFFFFFFFFFFFFFFFFFFFFFFFFFFFFFFFFFFFFFFFFFFFFFFF DUP3 PUSH2 0xDD1 JUMP JUMPDEST PUSH2 0xE18 DUP7 DUP4 PUSH2 0xDD1 JUMP JUMPDEST SWAP6 POP DUP1 NOT DUP5 AND SWAP4 POP DUP1 DUP7 AND DUP5 OR SWAP3 POP POP POP SWAP4 SWAP3 POP POP POP JUMP JUMPDEST PUSH1 0x0 DUP2 SWAP1 POP SWAP2 SWAP1 POP JUMP JUMPDEST PUSH1 0x0 PUSH2 0xE55 PUSH2 0xE50 PUSH2 0xE4B DUP5 PUSH2 0x988 JUMP JUMPDEST PUSH2 0xE30 JUMP JUMPDEST PUSH2 0x988 JUMP JUMPDEST SWAP1 POP SWAP2 SWAP1 POP JUMP JUMPDEST PUSH1 0x0 DUP2 SWAP1 POP SWAP2 SWAP1 POP JUMP JUMPDEST PUSH2 0xE6F DUP4 PUSH2 0xE3A JUMP JUMPDEST PUSH2 0xE83 PUSH2 0xE7B DUP3 PUSH2 0xE5C JUMP JUMPDEST DUP5 DUP5 SLOAD PUSH2 0xDDE JUMP JUMPDEST DUP3 SSTORE POP POP POP POP JUMP JUMPDEST PUSH1 0x0 SWAP1 JUMP JUMPDEST PUSH2 0xE98 PUSH2 0xE8B JUMP JUMPDEST PUSH2 0xEA3 DUP2 DUP5 DUP5 PUSH2 0xE66 JUMP JUMPDEST POP POP POP JUMP JUMPDEST JUMPDEST DUP2 DUP2 LT ISZERO PUSH2 0xEC7 JUMPI PUSH2 0xEBC PUSH1 0x0 DUP3 PUSH2 0xE90 JUMP JUMPDEST PUSH1 0x1 DUP2 ADD SWAP1 POP PUSH2 0xEA9 JUMP JUMPDEST POP POP JUMP JUMPDEST PUSH1 0x1F DUP3 GT ISZERO PUSH2 0xF0C JUMPI PUSH2 0xEDD DUP2 PUSH2 0xDAC JUMP JUMPDEST PUSH2 0xEE6 DUP5 PUSH2 0xDC1 JUMP JUMPDEST DUP2 ADD PUSH1 0x20 DUP6 LT ISZERO PUSH2 0xEF5 JUMPI DUP2 SWAP1 POP JUMPDEST PUSH2 0xF09 PUSH2 0xF01 DUP6 PUSH2 0xDC1 JUMP JUMPDEST DUP4 ADD DUP3 PUSH2 0xEA8 JUMP JUMPDEST POP POP JUMPDEST POP POP POP JUMP JUMPDEST PUSH1 0x0 DUP3 DUP3 SHR SWAP1 POP SWAP3 SWAP2 POP POP JUMP JUMPDEST PUSH1 0x0 PUSH2 0xF2F PUSH1 0x0 NOT DUP5 PUSH1 0x8 MUL PUSH2 0xF11 JUMP JUMPDEST NOT DUP1 DUP4 AND SWAP2 POP POP SWAP3 SWAP2 POP POP JUMP JUMPDEST PUSH1 0x0 PUSH2 0xF48 DUP4 DUP4 PUSH2 0xF1E JUMP JUMPDEST SWAP2 POP DUP3 PUSH1 0x2 MUL DUP3 OR SWAP1 POP SWAP3 SWAP2 POP POP JUMP JUMPDEST PUSH2 0xF61 DUP3 PUSH2 0x909 JUMP JUMPDEST PUSH8 0xFFFFFFFFFFFFFFFF DUP2 GT ISZERO PUSH2 0xF7A JUMPI PUSH2 0xF79 PUSH2 0x754 JUMP JUMPDEST JUMPDEST PUSH2 0xF84 DUP3 SLOAD PUSH2 0xC50 JUMP JUMPDEST PUSH2 0xF8F DUP3 DUP3 DUP6 PUSH2 0xECB JUMP JUMPDEST PUSH1 0x0 PUSH1 0x20 SWAP1 POP PUSH1 0x1F DUP4 GT PUSH1 0x1 DUP2 EQ PUSH2 0xFC2 JUMPI PUSH1 0x0 DUP5 ISZERO PUSH2 0xFB0 JUMPI DUP3 DUP8 ADD MLOAD SWAP1 POP JUMPDEST PUSH2 0xFBA DUP6 DUP3 PUSH2 0xF3C JUMP JUMPDEST DUP7 SSTORE POP PUSH2 0x1022 JUMP JUMPDEST PUSH1 0x1F NOT DUP5 AND PUSH2 0xFD0 DUP7 PUSH2 0xDAC JUMP JUMPDEST PUSH1 0x0 JUMPDEST DUP3 DUP2 LT ISZERO PUSH2 0xFF8 JUMPI DUP5 DUP10 ADD MLOAD DUP3 SSTORE PUSH1 0x1 DUP3 ADD SWAP2 POP PUSH1 0x20 DUP6 ADD SWAP5 POP PUSH1 0x20 DUP2 ADD SWAP1 POP PUSH2 0xFD3 JUMP JUMPDEST DUP7 DUP4 LT ISZERO PUSH2 0x1015 JUMPI DUP5 DUP10 ADD MLOAD PUSH2 0x1011 PUSH1 0x1F DUP10 AND DUP3 PUSH2 0xF1E JUMP JUMPDEST DUP4 SSTORE POP JUMPDEST PUSH1 0x1 PUSH1 0x2 DUP9 MUL ADD DUP9 SSTORE POP POP POP JUMPDEST POP POP POP POP POP POP JUMP JUMPDEST PUSH32 0x4E487B7100000000000000000000000000000000000000000000000000000000 PUSH1 0x0 MSTORE PUSH1 0x12 PUSH1 0x4 MSTORE PUSH1 0x24 PUSH1 0x0 REVERT JUMPDEST PUSH32 0x4E487B7100000000000000000000000000000000000000000000000000000000 PUSH1 0x0 MSTORE PUSH1 0x11 PUSH1 0x4 MSTORE PUSH1 0x24 PUSH1 0x0 REVERT JUMPDEST PUSH1 0x0 PUSH2 0x1093 DUP3 PUSH2 0x988 JUMP JUMPDEST SWAP2 POP PUSH2 0x109E DUP4 PUSH2 0x988 JUMP JUMPDEST SWAP3 POP DUP3 PUSH2 0x10AE JUMPI PUSH2 0x10AD PUSH2 0x102A JUMP JUMPDEST JUMPDEST DUP3 DUP3 DIV SWAP1 POP SWAP3 SWAP2 POP POP JUMP JUMPDEST PUSH1 0x0 PUSH2 0x10C4 DUP3 PUSH2 0x988 JUMP JUMPDEST SWAP2 POP PUSH2 0x10CF DUP4 PUSH2 0x988 JUMP JUMPDEST SWAP3 POP DUP3 DUP3 ADD SWAP1 POP DUP1 DUP3 GT ISZERO PUSH2 0x10E7 JUMPI PUSH2 0x10E6 PUSH2 0x1059 JUMP JUMPDEST JUMPDEST SWAP3 SWAP2 POP POP JUMP JUMPDEST PUSH1 0x0 PUSH1 0x60 DUP3 ADD SWAP1 POP DUP2 DUP2 SUB PUSH1 0x0 DUP4 ADD MSTORE PUSH2 0x1107 DUP2 DUP7 PUSH2 0x94F JUMP JUMPDEST SWAP1 POP PUSH2 0x1116 PUSH1 0x20 DUP4 ADD DUP6 PUSH2 0x8FA JUMP JUMPDEST PUSH2 0x1123 PUSH1 0x40 DUP4 ADD DUP5 PUSH2 0x992 JUMP JUMPDEST SWAP5 SWAP4 POP POP POP POP JUMP JUMPDEST PUSH1 0x0 PUSH1 0x40 DUP3 ADD SWAP1 POP PUSH2 0x1140 PUSH1 0x0 DUP4 ADD DUP6 PUSH2 0x8FA JUMP JUMPDEST PUSH2 0x114D PUSH1 0x20 DUP4 ADD DUP5 PUSH2 0x992 JUMP JUMPDEST SWAP4 SWAP3 POP POP POP JUMP INVALID LOG2 PUSH5 0x6970667358 0x22 SLT KECCAK256 0x28 0xAA PUSH0 EXTCODECOPY EXP 0x4F 0xB6 0xAE CALL 0xB8 0xB9 PUSH16 0x72FA927CF3A5C1FC12C9C389B6E89464 MLOAD 0xAC 0xE4 PUSH32 0x64736F6C63430008140033000000000000000000000000000000000000000000 "},"methodIdentifiers":{"bookings(string)":"502bf35e","createBooking(string,uint256)":"b689a930","getBooking(string)":"9624493f","getLoyaltyPoints(address)":"d04c9115","loyaltyPoints(address)":"d45e4259"}}}}}